:1000000080180020E11700003D4B0000B5170000EC
:10001000B5170000B5170000B5170000B5170000B0
:10002000000000000000000000000000F5140000C7
:10003000B5170000000000009D140000B517000077
:100040007515000075150000751500007515000088
:100050007515000075150000751500007515000078
:100060007515000075150000751500007515000068
:100070007515000075150000751500007515000058
:100080007515000075150000751500007515000048
:100090007515000075150000751500007515000038
:1000A0007515000075150000751500007515000028
:1000B0007515000075150000751500007515000018
:1000C0007515000075150000751500007515000008
:1000D00075150000751500007515000075150000F8
:1000E00075150000751500007515000075150000E8
:1000F00075150000751500007515000075150000D8
:1001000075150000751500007515000075150000C7
:1001100075150000751500007515000075150000B7
:1001200075150000751500007515000075150000A7
:100130007515000075150000751500007515000097
:100140007515000075150000751500007515000087
:040150007515000021
:1001540053B94AB9002908BF00281CBF4FF0FF312A
:100164004FF0FF3000F00CB8ADF1080C6DE904CE8F
:1001740000F008F8DDF804E0DDE9022304B070477C
:10018400704700BF2DE9F04786468C460846089E16
:10019400154674461946002B40F0C1808542B2FAD8
:1001A40082F245D94AB1C2F1200300FA02FC95401B
:1001B40094402EFA03F343EA0C0C4FEA154EA8B20E
:1001C400230CBCFBFEF80EFB18CC08FB00F943EA39
:1001D4000C43994528D9EB1808F1FF3704D2994507
:1001E40002D9A8F102072B44A3EB0903A4B2B3FB81
:1001F400FEFC0EFB1C330CFB00F044EA0344A0425B
:1002040014D92C190CF1FF3304D2A04202D9ACF159
:1002140002032C44241A43EA07401EB1D4400023AD
:1002240034607360BDE8F0874746DDE76346F1E775
:1002340092BB431B01214FEA154EAFB2200CB3FB16
:10024400FEFC0EFB1C330CFB07F840EA0343984505
:1002540061D9EB180CF1FF3004D2984502D9ACF106
:1002640002002B44A3EB0803A4B2B3FBFEFC0EFB79
:100274001C330CFB07F744EA0344A7424DD92C195D
:100284000CF1FF3304D2A74202D9ACF102032C448F
:10029400E41B43EA0040C0E7C2F1200395409440C8
:1002A40020FA03F12EFA03F34FEA154E9040AFB251
:1002B4000343B1FBFEFC0EFB1C10190C0CFB07F8EE
:1002C40041EA0041884522D969180CF1FF3004D273
:1002D400884502D9ACF102002944A1EB08019BB284
:1002E400B1FBFEFC0EFB1C110CFB07F743EA0143B8
:1002F4009F420ED9EB180CF1FF3104D29F4202D970
:10030400ACF102012B44DB1B41EA004193E7604658
:10031400E3E76146F7E76046A4E76346B8E783424C
:1003240006D916B9002108467CE7C6E900E0F9E7DA
:10033400B3FA83F78FB9834201D3724508D8BEEB71
:10034400020460EB030301209C461EB9002169E707
:100354003846FAE7C6E9004CF8E7C7F1200CBB4081
:100364000EFA07F522FA0CF42EFA0CF1BA401C43EB
:1003740020FA0CF3B8404FEA144901431FFA84FEF3
:10038400B3FBF9F809FB18300B0C08FB0EFA43EA2F
:1003940000439A4540D9E31808F1FF3004D29A4546
:1003A40002D9A8F102002344A3EB0A0389B2B3FBE8
:1003B400F9F809FB183308FB0EFE41EA03418E45A8
:1003C4002CD9611808F1FF3304D28E4502D9A8F163
:1003D4000203214443EA0040A1EB0E01A0FB029872
:1003E4004145CE46434602D306D14D4504D2013899
:1003F400B9EB020E68EB0403002EA7D0B5EB0E0296
:1004040061EB030101FA0CFC22FA07F3F9404CEA10
:100414000303C6E9003199E74046C5E74346D9E7F7
:10042400014804F003BA00BF5058000013B500227D
:100434001649174805F073F840F6CD4200231448D6
:10044400CDE900230022002304F00CF8114804F045
:10045400D9FEC8B10F4804F0D5FEA8B10E4804F087
:10046400EDF9002810DB0D4804F0E8F900280BDB57
:100474000A4C204604F0DAF9002805DB00214FF489
:10048400004003F0A9FDF4E702B010BD250400000C
:1004940090010020C4550000505800004858000046
:1004A400014B1B68184700BF00000020014B186077
:1004B400704700BF0000002007B50B46002102462C
:1004C4000091034800F014F903B05DF804FB00BF89
:1004D400A50400002DE9F047058B04462807904643
:1004E40011D4022905F0070540F0CD80204604F020
:1004F400D8F978B10138218B042811D8DFE800F04D
:10050400C3106D85950001290CBF45F0100545F019
:100514002005258388F31188BFF36F8FBDE8F0872A
:1005240001F0070AAA4500F0A6800027B9463E4616
:10053400A368002B00F0BD8041F00801218388F3FB
:100544001188BFF36F8FA168002900F0BB800D688C
:10055400002900F0B780334652462046D1F8048083
:10056400C047002D76D02B6829461D46F0E701F0E0
:1005740007035A1F012A1BD8002221F00701062B6A
:10058400276889B2C4E9002209D13B4603E0628BA3
:10059400013262831B68002BF9D141F0020120462D
:1005A400218304F07EF900287BD041F0200177E01C
:1005B400042B0AD121F0070189B22046218304F0DB
:1005C40070F910B141F020012183218B01F0070A59
:1005D400AA4550D00027B946AAE7236921F00701AC
:1005E40041F00601062DD3F8009021832DD1B9F1F5
:1005F400000F40D041F00801218388F31188BFF334
:100604006F8F20463949C84729E021F00701236943
:1006140041F0040189B2042DD3F804902183E6D07B
:1006240000274FF0040A3E4682E721F007012369C0
:1006340041F0050189B2052DD3F808902183D6D065
:1006440000274FF0050A3E4672E700274FF0060ADE
:100654003E466DE72B4687E7B9F1000FD1D14FF045
:100664002003EFF3118883F31288BFF36F8F238B7A
:1006740023F008032383258BEA062ED525F01003E7
:10068400238305F007056669218B002EBFF66FAF43
:1006940000232768C4E9003321F0070141F0010178
:1006A4002183218B4FF0000901F0070AAA457FF44A
:1006B4003FAF002F9BD041F00801218388F31188BC
:1006C400BFF36F8F002FC7D03D683946334652467B
:1006D400204604F012F92F46F4E7AB067FF51AAF73
:1006E40025F02003238305F00705FFE62B490000CE
:1006F4002DE9F04F81468B4617461C46002595B0E0
:10070400387808B9284657E37B1C2528039306D07C
:100714005946C8470028C0F24F830135FBE118222F
:1007240000210EA804F054FA7B78252B7DD00023F9
:1007340098469E469C461E46781C014610F8012B9E
:100744002B2A00F0A18000F29880202A00F09F80DC
:10075400232A00F09F802BB19DF8403043F04003E2
:100764008DF84030B8F1000F05D09DF8403043F0CB
:1007740020038DF84030BEF1000F05D09DF84030C5
:1007840043F010038DF84030BCF1000F05D09DF804
:10079400403043F008038DF840302EB19DF84030CE
:1007A40043F004038DF840309DF8403003F04400DA
:1007B400442803D16FF386138DF840309DF8403000
:1007C4002A2A43F080038DF840307FD19DF84120E0
:1007D4004B1C42F001028DF841201A782E2A0CBFDE
:1007E400012100219DF8412061F341028DF841204F
:1007F40078D15A782A2A6ED000224FF00A0C01339D
:10080400194611F8010BA0F13006092E40F295802B
:100814009DF840101292C1F3400040EAD2700A469B
:1008240060F341028DF840205CE0BA1C03928DF81D
:1008340043309DF84130DA0740F12E8154F8048B9F
:10084400B8F1000F07DA9DF84020C8F1000842F023
:1008540004028DF840205E0740F1278154F804AB70
:10086400BAF1000F80F226819DF841306FF3410305
:100874008DF841304FF0FF3A1CE12D2A0DD0302A7B
:100884007FF469AF012358E74FF0010C55E74FF0AF
:10089400010E52E74FF001084FE701264DE70346EA
:1008A4000EFB0262303A184610F8016BA6F1300CC8
:1008B400BCF1090FF3D999428FD09DF840101192E1
:1008C400D20F62F341018DF8401086E70B460022F7
:1008D4004FF00A0EE7E79DF84120023342F004028C
:1008E4008DF841201A786C2A47D02BD8682A31D049
:1008F4006A2A4BD04C2A51D01A4612F8013B782B65
:1009040003928DF843309DF8412000F2BE806D2B98
:1009140051D8692B00F2B980572B67D8412B03D0EB
:10092400453B022B00F2B18004229DF8423062F371
:1009340002038DF84230012373E00CFB02020B46E4
:10094400303A5DE7742A25D07A2AD5D106219DF85C
:1009540041200CE05A78682A9DF8412006D10121F3
:1009640061F3C6028DF841200233C5E7022161F329
:10097400C6028DF841200133BEE75A786C2A9DF8EF
:10098400412001D10421EBE70321F0E705219DF883
:100994004120ECE707219DF84120E8E7BDF840201D
:1009A40022F4F04222F0020242F4804242F00202B7
:1009B400ADF84020DFE76E3BD9B201238B4040F213
:1009C40082410B4237D113F0240F51D1D8075CD5A3
:1009D40003219DF8423061F302038DF8423002F0A6
:1009E4007803A3F140014B424B411AE00120A3F1EB
:1009F4005801C9B200FA01F111F4624F94D140F6E2
:100A0400010631421DD111F4043F3ED09DF842301D
:100A140060F3020302F07802402A8DF8423034D0A9
:100A240000239DF84020C2F340010B4363F34102CD
:100A34008DF84020FDE602219DF8423061F3020367
:100A4400E8E702209DF8421002F0780260F3020108
:100A5400402A8DF8421002BF9DF8401041F0010178
:100A64008DF84010632BDBD1131E18BF0123D8E788
:100A740003219DF8423012F0780F61F302038DF8E0
:100A8400423014BF01230023CBE79DF8403043F0EC
:100A940001038DF84030C3E79DF94020002AACBF24
:100AA4004FF0FF38DDF84480D5E698077FF5E2AED5
:100AB400DDF848A00023CDE911339DF842309DF8BC
:100AC400411003F00703012BC1F3C30133D1CB1E43
:100AD400042B04D8DFE803F02146462121002368D3
:100AE40001294FEAE372CDE90E321CD19DF9383069
:100AF400DA17CDE90E3204349DF8403013F00306C2
:100B040050D03A4659464846039B03F0E9FF002873
:100B1400C0F252810544039FF2E554F8043BDA170E
:100B2400CDE90E32E8E70229E5D11AB243F3C03326
:100B3400CDE90E23DFE7022B24D1CB1E042B04D8EE
:100B4400DFE803F018101018180001294FF0000214
:100B540054F8043B14D00229CDE90E32CCD19BB217
:100B64000E93C9E7073424F00704F4E80223CDE91F
:100B74000E23C1E754F8043B0E9300230F93BBE705
:100B8400DBB2CDE7042B08D1073424F00704D4E901
:100B940000230834CDE90E23AEE7032BACD154F87F
:100BA400043BDDE79DF843007828B4D862281CD8BC
:100BB40025283FF4ADAD5828ADD1DDE90E010DF186
:100BC4003603009310AA08AB03F044FFBAF1000FF8
:100BD400074680F29980002F9DD00DF13603D81B73
:100BE400002E00F0C0800130BDE06338152892D893
:100BF40001A252F820F000BFD10C0000E30C000069
:100C04001B0B00001B0B00001B0B00001B0B000048
:100C1400E30C00001B0B00001B0B00001B0B00006F
:100C24001B0B00006F0D0000070D00002D0D0000D0
:100C34001B0B00001B0B0000550C00001B0B0000DD
:100C4400070D00001B0B00001B0B0000070D00002C
:100C5400BAF1000F0E9F35DB5146384603F0A4FF6E
:100C640007EB000A002F3FF456AF00269DF84230F0
:100C740013F01002059200F0928002305B06119A84
:100C840048BF129B104448BFC018B8F1000F04922B
:100C940040F39F809DF84020A8EB0008C2F3800336
:100CA4005007069300F19580510640F188803EB1CB
:100CB40059463046C84700287EDB069B01351E4650
:100CC40030227DE0384603F068FFC9E70E9B00261A
:100CD40001208DF8203008AF0DF1210AC6E719076D
:100CE4005ABFC3F300135E012B26DDE90E23002B4C
:100CF400BFF663AF524263EB43032D26CDE90E23C7
:100D04005BE7002659E700269DF840200DF13603E5
:100D1400DB1B6FF386129A458DF840207FF65BAF9C
:100D2400AAEB0303119356E70E9890B30DF1360323
:100D34000093002108AB10AA03F08CFEBDF84230EA
:100D4400BAF1000F03F0EF0343F4F04343F0100350
:100D54000746ADF84230D6DA00283FF4DCAE002670
:100D64000DF13603181A9A4680E70E9B07293FF6C1
:100D7400D2AEDFE801F00C04060C08080C0C1D7060
:100D8400C9E61D80C7E6EA17C3E90052C3E61D6041
:100D9400C1E62F4F064607F1050A052066E71A0744
:100DA40048BF01306AE71046079306925946C84780
:100DB400DDE90623002804DA15B0BDE8F08F20220F
:100DC40043461946002903F1FF33ECDC45449846B9
:100DD4006D1A2EB159463046C8470028ECDB013560
:100DE4009DF84230DA0601D41B0705D55946302058
:100DF400C8470028E0DB0135059B33B159469DF80F
:100E04004300C8470028D7DB0135049E2E4405E083
:100E140059463020C8470028CEDB0135731B002B10
:100E2400F6DC53463A465946484603F059FE002834
:100E3400C2DB0544A844A8EB0503002B7FF76BAE87
:100E440059462020C8470028B6DB0135F3E700BF28
:100E5400345A000008B54FF02002EFF3118382F3F7
:100E64001288BFF36F8F00F0E9FC034803F002FD22
:100E740000F08EFAFCE700BF3A5A0000054B03EB82
:100E84008000D0F8003223F0E04343F04053C0F830
:100E9400003270470025845010B54FF02003EFF363
:100EA400118483F31288BFF36F8F01220C4B0D4919
:100EB400C3F8002502230020C1F8D036FFF7DEFF77
:100EC4001046FFF7DBFFC1F80427C1F80429C1F875
:100ED400002B84F31188BFF36F8F002010BD00BF77
:100EE400001000500040005048B1054B054A1B68F3
:100EF400B3FBF2F35843044B43F001031847704724
:100F04004800002040420F0040580000062807D146
:100F14000122044BC3F80025BFF34F8F20BFFDE728
:100F2400704700BF0040005001F0FABD2DE9F843BE
:100F340005464FF02003EFF3118683F31288BFF3C5
:100F44006F8F4FF00C090D4B0D4F1C68DFF8348088
:100F54002CB986F31188BFF36F8FBDE8F883D4E909
:100F64000123002D18BF13462BB198F8142009FB58
:100F740002F2B85C98472468EAE700BF080300203F
:100F8400FC02002028090020012270B5164B1C7DAC
:100F940004F01F039A40D043144B610903EB81030F
:100FA400D3E8EF1F01EA0005C3E8E65F002EF7D19E
:100FB4000A4213D00E4B0F4D8BB10C236343EA1836
:100FC4005178E85C03F0A4FD0020FFF7AFFF0C2389
:100FD4005C4300232A192B51C2E9013370BD83F30A
:100FE4001188BFF36F8FEFE728090020100300205A
:100FF400154B0000FC0200202DE9F041324B07465E
:101004001D7D4FF02003EFF3118883F31288BFF3A3
:101014006F8F0C246C432D4B2D4E195D1A1900292A
:1010240047D007CA06EB040C8CE8070000221A55C7
:1010340088F31188BFF36F8F0C236B43F05CF218B5
:10104400A8B37B1C10D04FF400400021D2F808C094
:10105400204C0023ECFB00411F4A2046FFF778F8A0
:101064000121381A04F035FA02F0F8FE0120FFF7E6
:101074005DFF1A4B6A0903EB8203012205F01F018D
:101084008A40D3E8EF0F1043C3E8E10F0029F8D1F9
:10109400134B3BB10C2303FB05F033185978305C38
:1010A400FFF734FFFFF770FF02F0ECFE0120BDE80C
:1010B400F0810146284600F015F80028B8D007C88A
:1010C400344484E80700B3E728090020F002002034
:1010D400FC0200203F420F0040420F00100300209A
:1010E400110F00002DE9F04F85B00E4603A900F062
:1010F40043F84FF4004704464FF0000B1B4B039D8D
:10110400D3F800A0431E1BB203EB4303DFF8608057
:1011140005EB830524B9A146484605B0BDE8F08F28
:10112400C446594668680023E0FB07C1114A60467B
:10113400FFF70EF8C44659460190A8680023E0FB67
:1011440007C10C4A6046FFF703F8BAF1FF3FA9460E
:1011540001D0824505D9731CDED0019B1844B042EE
:10116400DAD9013CA4B20C3DD4E700BF040000204E
:101174003F420F0040420F0008B9024B0B600020B1
:10118400704700BF58580000014803F00DBA00BF73
:101194005858000038B5044618B90F4B0F485B681F
:1011A40098476168B1F5683F0FD0B1F5680F0CD06E
:1011B4000B4DA94209D011F4686107D021460948B2
:1011C40004F06EF800232360656038BD14222068A3
:1011D40003F0FEFCF8E700BFD4000020635A0000CF
:1011E4002C5F5CA91408002008B560B34368B3F50C
:1011F400683F0ED0B3F5680F18D0144A934220D03C
:1012040000684FF0FF324FF0FF3302F01FFB58B17C
:1012140015E001220368D3E8EF1F002903D1C3E8D6
:10122400E02F0028F7D10AD1002008BD0368084A3E
:101234001B7803F5807352F82330002BF4D0054853
:10124400F3E70548F1E76FF4E040EEE72C5F5CA9B3
:1012540000000350E98FFFFFEA8FFFFF08B520B3BA
:101264004368B3F5683F09D0B3F5680F13D0114A4A
:1012740093421DD0006802F063FB14E0002203686F
:10128400D3E8EF1F012903D1C3E8E02F0028F7D1E9
:1012940009D0094808BD00210368084A1B7803F5F2
:1012A400807342F823100020F4E76FF4E040F1E784
:1012B4000348EFE72C5F5CA9E98FFFFF00000350B0
:1012C400EA8FFFFF10B5044618B91D4B1D485B6833
:1012D40098476368B3F5683F2FD0B3F5680F2CD0F7
:1012E400194A934219D1236803BB4FF0FF324FF0E0
:1012F400FF332146154802F0D3F908B923681BB916
:101304000F4B13485B68984714220021206803F0B0
:101314005FFC4FF46863636008E0B3F5683F0DD881
:101324003A2B03D040F6BA629342DED1206803F030
:10133400F5FF636843F03A03636010BD054AF3E7C1
:10134400D4000020635A00002C5F5CA9140800201C
:10135400895A00003A00003A08B50649402314228D
:10136400054803F08FFFBDE808400449044803F032
:101374008DB900BF14030020140800206058000039
:1013840074580000014910220A60704710ED00E013
:1013940072B6404080F31188BFF36F8FBFF34F8F55
:1013A40030BF62B6BFF36F8F704700BF72B649405B
:1013B40081F3118820BF80F3118862B6704700BFA3
:1013C40040B2002807DB01234109034A00F01F0053
:1013D400834042F82130704700E100E0054B4209A8
:1013E40053F82220012300F01F0003FA00F01040FC
:1013F400704700BF00E100E040B2002801F10101A4
:10140400ACBF00F16040064B4FEA4111C9B2ABBF1B
:1014140000F5614000F00F0080F800131954704784
:1014240014ED00E030BFFFF7FDBF00BF0B4A08B565
:101434000B4B22F07F029A60BFF34F8FBFF36F8F85
:10144400D3F8882022F47002C3F8882002F068F8E8
:1014540002F042FE00F0B6F902F0A2F8000000002B
:1014640000ED00E0094A0A499368096858679967DA
:1014740008494B6843F080534B60002383F3118881
:10148400BFF36F8F9368986F704700BF28090020DF
:101494008C59000000ED00E013498A684FF03000D9
:1014A4001044EFF3098C80E8F01F202080F31288A9
:1014B400BFF36F8F0D4F4FF00066CA698A603E60BC
:1014C400506F0023536780F3118802F1300090E8D5
:1014D400F01F8CF3098802F1000004B503F033FB1C
:1014E400BDE80440704700002809002004ED00E036
:1014F4001EF0040F0CBFEFF30880EFF3098081693D
:1015040011F8021C0229FFD001B503F00DFB01BD47
:1015140042F8203C009B0B4942F81C3C019B21F003
:10152400010142F8183C029B42F8081C42F8143CA2
:101534004FF0807342F8043C0023203A026543676D
:10154400704700BF93480000084B9860436E83F3D4
:101554000B88104681F30988002163B681F3118852
:10156400BFF36F8F0022002303F091F928090020B4
:1015740001B572B60B4A906900281EBF0021916123
:1015840003F0BDFE62B6EFF30580A0F110004FEA50
:10159400C0000549014409C99847BDE80140034911
:1015A4000847000028090020F4550000B515000084
:1015B400044B9968D869884203D003494FF080529C
:1015C4000A6070472809002004ED00E0084B9A6A7D
:1015D4009A6A986A9A6A9A6A9A6A9A6A9A6AC0F33A
:1015E40000506FEA02426FEA124240009A6270476A
:1015F40000ED00E00D4B9A6A9A6A9A6A920508D542
:101604009A6B9A6A120404D518B19A6A22F40042B9
:101614009A6200209A6A9A6AD205044A58BF9B6A61
:10162400936A43F47F4393620870704700ED00E0CF
:10163400124B9A6A9A6A9A6A920708D55A6B9A6AFE
:10164400120604D518B19A6A22F080029A629A6A44
:101654009A6A9A6AD0064FF0000058BF9B6A074BFB
:101664009A6A920642BF5A6A22F400525A629A6AED
:1016740042F0FF029A620870704700BF00ED00E07C
:1016840070B5444B06465B6800258AB0C3F3080373
:1016940085F31188BFF36F8F02F07F40B0F17F4F65
:1016A40011D102F00C0008280DD010074CBF0E46D3
:1016B40001250022033B8DF80720032B05D8DFE822
:1016C40003F01E5C60592E46F3E700249DF80730B2
:1016D4009BB92022314602A803F06FFA099B002D22
:1016E40053D0C3F3080222B96FEA53236FEA4323AA
:1016F4000993204602A903F015FA0AB070BD254BE0
:10170400DA6A9107E1D4DA6A002ADEDBDA6A520087
:10171400DBD55A69B16942F480725A61BFF34F8FC5
:10172400BFF36F8F5A6931F8021C22F480725A6138
:10173400BFF34F8FBFF36F8F4DF60272914209D002
:101744009A6AD2B242B101200DF10701FFF770FF8E
:101754000446BBE73468B9E79A6A12F47F4F05D0B0
:1017640001200DF10701FFF745FFF1E79B6AB3F58F
:10177400803FAAD3FFF72AFFEAE700200DF1070113
:10178400E4E700200DF10701EDE723F4FF7323F0F4
:101794000103ADE700ED00E0044B5A6942F010028A
:1017A4005A615A6942F480625A61704700ED00E060
:1017B400EFF30880EFF3098101B57246FFF760FF8C
:1017C40001BD00BF002320210348C2180133452B6B
:1017D40082F80013F9D1704700E100E0002080F3A3
:1017E4001488BFF36F8F002080F30A8880F30B887E
:1017F400FFF79AFB00200E490860BFF34F8F0D4896
:1018040080F3088800F03EF8202080F311880A480D
:101814004FF40061401880F30988EFF3148002212B
:10182400084380F31488BFF36F8FFFF7FFFD0000B8
:1018340094ED00E080180020400B0020BFF34F8F90
:101844000549064BCA6802F4E0621343CB60BFF358
:101854004F8F00BFFDE700BF00ED00E00400FA0574
:10186400002318460649D1F89020C2F30722934278
:1018740000DB7047C1F89830C1F8A0000133F6E7E7
:1018840000ED00E010B572B6002484F31388FFF76E
:10189400E7FF23464FF0FF300C4A03F120010133E8
:1018A400102B42F82100F8D100234FF0FF30074AF3
:1018B40003F160010133102B42F82100F8D162B624
:1018C400BFF34F8FBFF36F8F10BD00BF00E100E087
:1018D400084B9B6883420BD1EFF3058343B1064B5E
:1018E4005A6842F080525A605A6A22F400425A629C
:1018F40002F092BB2809002000ED00E01FB5094C5E
:10190400094A23460121094800F0EAF80023039319
:10191400074B0121E41A01A80193029400F0EAF8AC
:1019240004B010BD0000072000000020845800000F
:101934009001002010B50C7A0B6804F01F0223F00C
:101944001F031A43CB68640923F01F03054943EAC4
:10195400440343F00103C1F89800C1F89C20C1F886
:10196400A03010BD00ED00E02DE9F04F0F46144605
:1019740006464FF000084E4D85B0B84580F294807D
:10198400D6F80490B9F1000F36D0B9F11F0F40F228
:10199400898019F01F0F40F08580D6F800A01AF056
:1019A4001F0F7FD1504603F0D2F8834609EB0A009B
:1019B400013803F0CCF8834574D11BF1160F71D0B4
:1019C4005C456FDDC5F898B0D5F89C10C5F898B0A3
:1019D400D5F8A03021F01F0143F01F0AD6E90032E8
:1019E4001A44994202F1FF391ED1CA4508D1314641
:1019F4005FFA8BF003F0B4F808F101080C36BCE789
:101A04003146C5F898B0D5F89C3022F01F0203F097
:101A14001F031343C5F89C30E0B203F0A1F810F1A2
:101A2400160F3FD0441CE7E7C5F898B0D5F8A020BE
:101A3400013B23F01F0302F01F021343CA45314642
:101A4400E0B2C5F8A030E8D003F08AF810F1160F20
:101A540028D0C5F898B0D5F89C209DF808300AF134
:101A6400FF3A62F304038DF80830D5F8A0309DF8EE
:101A740008205B0863F347128DF80820D6E900328A
:101A84001344009323F01F03411C5344A3EB0903A5
:101A9400C8B223F01F030728039303D86946FFF74E
:101AA40049FFBFE76FF01504204605B0BDE8F08F8D
:101AB40000ED00E00522044BC3F89420BFF34F8FE0
:101AC400BFF36F8F704700BF00ED00E0BFF35F8F7F
:101AD4000022024BC3F89420704700BF00ED00E0E1
:101AE40010B5034C2278FFF73FFF207010BD00BFF4
:101AF400380B00202DE9F74F294D8A4606464FF052
:101B04000008AB46274FD0451BDAD6F80490B9F14C
:101B1400000F3FD031680846019103F018F801998D
:101B2400044609EB0100013803F011F884424FF038
:101B340014021D4B08D002FB08F36FF015024BF89A
:101B4400032003B0BDE8F08F14F1160F2C60F8D019
:101B54001978A142F5DD02FB08B0C7F89840C7F830
:101B64009840D7F89C4000F10801007B64F304001E
:101B74000871D7F8A0000C79400860F347140C7181
:101B8400D7F89C1021F01F016960D7F8A01021F04C
:101B94001F01296108F1010814350C36B3E700BFB1
:101BA4003008002000ED00E0380B002038B50E4D61
:101BB4002C68082C15D80020FFF788FF0B4B0C4A23
:101BC400C3F8C020844205D10A4B00201C70FFF7E3
:101BD40071FF38BD696801EB0011FFF7ABFE0130FE
:101BE400F0E74FF0FF30F4E79058000000ED00E01C
:101BF400AAFF4400380B0020014B1860704700BF57
:101C040028000020084B70B5C31A0D4607499B10E5
:101C1400044659434022064803F002F82B46014685
:101C24002046BDE87040184758080020B76DDBB661
:101C340094550000402373B50B4C0093041B0B46D2
:101C44000D460A49A41061430646094A094803F0AF
:101C540014F8011E05DA30462B4602B0BDE8704088
:101C6400184702B070BD00BF58080020B76DDBB63E
:101C7400EB4C0000945500002DE9F84300220121AB
:101C840006460520FFF7B8FB114801F035F8114B63
:101C9400984219D103F0EAF900244FF01C090C27EB
:101CA400DFF834803569414609FB045002F049FEEF
:101CB400002807DB012307FB04551C44042CAB67F5
:101CC400F0D10020BDE8F8836FF00400FAE700BF0C
:101CD400151D00000000AD0BB858000001460C2390
:101CE400002270B54B430848C4187833D4E91C5615
:101CF4001844226702F081FF2DB132462B46BDE81D
:101D040070400248184770BD5808002094550000E0
:101D1400052811D8DFE800F0030E10100C0A074B59
:101D2400986F10F0070007D1FFF7D8BF0220FBE738
:101D34000320F9E70120F7E7704700BF58080020A7
:101D440008B54FF02003EFF3118183F31288BFF33A
:101D54006F8F124A136843F002001060DA0708D448
:101D640081F31188BFF36F8FBDE80840012003F0B1
:101D74008FB94FF05023D3F80C24D3F80C34D30785
:101D8400EED5074802F039FF81F31188BFF36F8F56
:101D9400BDE808400020FFF7A1BF00BFF8080020FD
:101DA400D00800201FB500220123CDE902236B4691
:101DB400084ACDF800D0CDF804D002F08DFF0028F9
:101DC40005DB4FF480420023684601F015FE05B0A0
:101DD4005DF804FB214D0000074BD3E8EF2F22F000
:101DE4000201C3E8E01F0028F7D1D30702D4012081
:101DF40003F0ADB9704700BFF80800202DE9F041A9
:101E0400012207463749D1E8EF3FC1E8E02F002817
:101E1400F9D133B9344935484B60CB608A6002F05C
:101E2400A3FD7B1E012B2BD8012F07D14FF050238C
:101E3400D3F81C3403F00303022B21D003F059FA26
:101E44000546F8B92A4B1B78E3B14FF05023022220
:101E54000646C3F808234FF05024DFF89880D4F8DE
:101E64001834D4F81824D20316D503F00303022B34
:101E740001D0012F10D175B386F31188BFF36F8F92
:101E8400BDE8F0814FF02003EFF3118683F312884D
:101E9400BFF36F8F0125DEE7C5B13046FFF786FA41
:101EA400D4F81835DBB2012BD9D1D4F80421002A97
:101EB400D5D00022C4F80421D4F804210222C4F8A5
:101EC40018252022C8F88021A360C8E7002121201A
:101ED40002F082F8E4E74FF050230222C3F804230F
:101EE400CEE700BF540800204408002074080020F6
:101EF4003B0B002000E100E008B5074803F082F93D
:101F040038B10648FFF778FE0448FEF7CFFA002000
:101F140008BD6FF01200FBE7DC550000251F000030
:101F24000A2838B50446074D04D1AB680D2128466C
:101F34005B689847AB6803485B68E1B29847204602
:101F440038BD00BFDC55000030B5406801F01F0407
:101F5400057BB2F5001F85B044EA451405D120463F
:101F640001F07AF9002005B030BD0025B2F5800FEC
:101F7400CDE9025514D1B3F1007F0CBF042305232E
:101F84008DF8083000232046194602AA00F0A2FF6B
:101F94001F4B984238D10121204601F017F9E1E79F
:101FA400B3F1C06F25D0B3F1007F14BF0123022326
:101FB4008DF808308368CB40D907E3D4B2F1A07F11
:101FC400E0D1144A14486109012908BF024604F00B
:101FD4001F03803352F82330DB07D3D40DF10705F8
:101FE4002946204601F09EF80C4B984203D00395F5
:101FF400C8E70323DCE7284601F0E2F8044B9842E3
:10200400F5D06FF00B00AEE76FF01500ABE700BF43
:102014000000AD0B00258450002884500400AD0B53
:1020240010B501F0BDF8044668B901F091F8084B09
:1020340098420AD12146074801F06EF8224605214C
:102044000D20FFF7D9F9002010BD6FF00400FBE765
:102054000000AD0B5D2000004209034670B502D0BC
:10206400012A17D070BD0D4E326951680029F9D08C
:10207400012503F01F030C689D400029F2D08A68F3
:102084002A4002D030464B6898472CB12368214639
:102094001C46F2E7024EE7E72346F8E7C455000082
:1020A400AC5500002DE9FF41476801F01F053B7B5B
:1020B400144645EA43150E4628460DF1030101F086
:1020C40031F814F4403F80460BD1284601F0ECF877
:1020D4003C4B984503D19DF8030001F06BF80020B8
:1020E4000CE000232846194602AACDE9023300F089
:1020F400F1FE344B984204D06FF0150004B0BDE8F3
:10210400F081804503D19DF8030001F053F8A30347
:1021140049D540F206332340B3F5837F19D00CD858
:10212400062B17D004D8ABB1022BE5D1042311E060
:10213400B3F5807FE0D101230CE040F20222934208
:1021440026D0B3F5407F25D0B3F5007FD4D1022348
:1021540000E007238DF8043084F48033C3F3004394
:10216400E0068DF805304CBF0323C4F3401321036C
:102174008DF8063010D501237A68B34093600022AD
:10218400284601A900F054FF0E4B9842A7D0B3E7AC
:102194000523DFE70323DDE7620341BF01237A68F8
:1021A400B340D360EBE7E3064FF000034CBF0324D6
:1021B400C4F340141A46284601A98DF8044000F0DF
:1021C40089FEE1E70000AD0BF0B54B79012B29D076
:1021D400032B24D110278B79032B20D1CE790EB178
:1021E400012E1CD10A79012A1ED0022A20D0B2B9AC
:1021F40014460B684568B3F5164FD5F800C06ED089
:1022040033D8B3F5165F6DD01CD8B3F5966F6BD089
:1022140010D8B3F5967F6AD0B3F5167F6AD06FF005
:1022240085005BE00027D6E74FF480740E22E0E7D8
:102234000024FBE7B3F5166F5FD0B3F5965FEED1DC
:10224400384B3CE0B3F5E14F5AD007D8B3F5615FA2
:1022540058D0B3F5964FE2D1334B30E047F6122510
:10226400AB42DCD14FF4000329E0B3F5613F4BD01E
:1022740013D8B3F5963F4AD009D84DF6C025AB42E2
:1022840047D0B3F5614FCAD14FF46B0317E0B3F5F0
:10229400E13FC4D14FF0EB7311E0B3F5612F3BD0B4
:1022A40008D8224DAB423AD0B3F5E12FB7D14FF065
:1022B400E86304E01E4DAB42B1D14FF08053056991
:1022C400CCF8243543683A431B6834432243C3F8AB
:1022D4006C252B1D03C983E803000020F0BD4FF4D7
:1022E4001D03ECE7134BEAE74FF49E23E7E74FF4B3
:1022F400A033E4E74FF41C33E1E74FF41D23DEE79A
:102304000D4BDCE70D4BDAE74FF06C73D7E70C4B62
:10231400D5E74FF46503D2E74FF07063CFE74FF092
:102324008063CCE700B0130000A04E0090D00300FF
:1023340040420F000050270000C0750000F03A0032
:1023440000903A012DE9F74380460022012108203C
:10235400FFF752F80820FFF733F80021D8F804708B
:10236400D8F810603C6801AAC4F80015C6F80080CB
:10237400D7F80C90484602F08EFD051E4DDB019BFC
:10238400D9F800201979186800F0E8FA051E44DB32
:102394004046311DFFF718FF054600283DD17B68F4
:1023A400990713D506F1180000F00EFD1E4B984254
:1023B40037D1337E43F00043C4F8A031C4F88C30E5
:1023C4000123327E9340194AC2F804350823C4F825
:1023D40000353B7A53B9C4F81031D4F8103173691D
:1023E400C4F834350123C4F8383523607B689A0770
:1023F4005CBF4FF48073C4F804337B68DB0644BFCE
:102404004FF48003C4F804333369C4F8443500231B
:10241400C4F848350123A360E360284603B0BDE84F
:10242400F0836FF00405F8E70000AD0B0070015075
:10243400F8B504460D46076902F05BFFB0B92E4BB0
:102444001B789BB16426606802F0DBFC00BB0120B2
:1024540002F047FD013EF6D10021212001F0BCFD30
:10246400F0E786F31188BFF36F8FF5E74FF0200391
:10247400EFF3118683F31288BFF36F8F60683146E0
:1024840002F0BFFC90B986F31188BFF36F8FEDE7BC
:102494004FF02003EFF3118683F31288BFF36F8F9D
:1024A4006068314602F0ADFC0028DAD03B691D704B
:1024B400626838691368C3F844050120C3F8480505
:1024C4000020C3F82001D3F82051C3F85801526802
:1024D400D3F85801D20608D5082062681268C2F8F9
:1024E40000054FF48002C3F8042301229A6081F3AB
:1024F4001188BFF36F8FF8BD3B0B0020012383408D
:1025040070B5DC430B4AD2E8EF1F01EA0405C2E8C8
:10251400E65F002EF7D14FF4803282400648C0F8BF
:102524000823BFF35F8FBFF36F8F0B4214BF0120EB
:10253400002070BD1809002000500150F8B51B4957
:10254400044622F07F450868C1E90023A5F500137D
:10255400101AB3F5400F0FD301F0A4FEA30003F14A
:10256400502303F58033D3F8402595421DD14FF411
:102574000002C3F8402512E00D4B1B681A0A1B0623
:102584005E190C4B42F10007C3E9006701F08AFEB3
:10259400094A04F5A87352F823309D4205D14FF43B
:1025A4008033054AA340C2F84433F8BDD801002063
:1025B4001C090020E001002000500150D9B1012382
:1025C4000D4A8340D2E8EFCF4CEA030CC2E8E1CFD6
:1025D4000029F7D14FF48033084A8340C2F804330A
:1025E400074BD3E8AF3FC340DB0742BF4FF40012B1
:1025F400044BC3F800217047180900200050015013
:102604001409002000E100E00D4B1868010A0006DF
:10261400BFF35F8F0B4BD3F80435181841F1000159
:10262400B3F5801F0AD2084BD3E90023904271EB23
:10263400030303D210F1807041F10001704700BF21
:102644001C09002000500150E00100202DE9F74F43
:1026540014461D460746FFF751FF0090FFF7D4FFCD
:10266400A04271EB05037AD2444B201A65EB0101B9
:10267400984271F100017DD2414B03EB0713D3E97A
:1026840002239D4208BF944254D04FF4803324F077
:102694007F4B5E4600214FEA870907F1500809F194
:1026A40050294FEA8808BB4009F580391FFA88F899
:1026B40008F150280193D9F84005324B08F58038C9
:1026C400D3F804A5A0EB0A0020F07F402AF07F4253
:1026D4000128C9F8402504D1132002F01CFF002171
:1026E400284B0AF1020CA6EB0C0020F07F40B0F559
:1026F400000F88BF6646C8F80010019AD8F8000099
:1027040026F07F40C3F84423C9F84005D3F80405F4
:10271400824506D0301A023820F07F40B0F5000F11
:102724001BD8A6EB0B0626F07F46361945F10003AD
:1027340034461D4612490C9801EB0712C2E90245C2
:1027440000243B01C8500D9B536038460099FFF7A5
:1027540035FF204603B0BDE8F08F3046B0E70123D3
:10276400094ABB40D2E8EF0F1843C2E8E10F002941
:10277400E0D0F7E76FF01504E7E700BF01000001C0
:10278400C8010020005001501409002073B5002432
:102794004FF0FF304FF0FF31164D174BC5F8084589
:1027A400C3E902014FF4803302264FF40012C5F846
:1027B4000433124B0121C5F804631520C3F88021AA
:1027C4002246FEF719FE1520FEF7FAFD01230C4AF6
:1027D400AB602B6013600B4B0B4A00932046002325
:1027E4000194FFF733FF3046FFF708FB204602B0A1
:1027F40070BD00BF00500150C801002000E100E09E
:102804001809002041250000FFFF7F002DE9F74350
:10281400314BD3F8042392070BD5D3F8042142B1EA
:102824000022C3F804212D4AD3F80431136801337C
:1028340013604FF02003EFF3118283F31288BFF388
:102844006F8F254CD4F80433DB0325D5244BD3E810
:10285400EF1F21F00100C3E8E50F002DF7D111B9F6
:10286400D4F84031C3B10025C4F84051D4F8403104
:1028740082F31188BFF36F8FFFF7C6FE4FF020037A
:10288400EFF3118283F31288BFF36F8F154BD3E9F3
:102894000267B042B94106D282F31188BFF36F8F49
:1028A40003B0BDE8F0834FF0FF38D3E900104FF0D8
:1028B400FF391D60C3E902894FF48033C4F84833FB
:1028C40082F31188BFF36F8F0029E9D0009032465C
:1028D4003B4628468847E3E7005001501C09002086
:1028E40014090020C8010020431C13B520D001287E
:1028F40020DDB0F5000F1FDA441EFFF785FE0F4BF5
:10290400D3E90013421AB2F5000F28BF00240C4883
:1029140001322244824228BF02460020521809494B
:102924000190009143F10003FFF790FE02B010BD47
:102934000348E1E70024E0E7014CDEE7D80100208A
:10294400FFFF7F004125000008B5FFF75DFE024B45
:102954001B68C01A08BD00BFD80100204FF0010C4D
:102964002DE9F0475B4E5C4F00EB8101814202D1BF
:102974000020BDE8F087046804F07F03C4F3432516
:102984007F2B4FEA144408BF4FF0FF33222C00F290
:102994009D80DFE804F0122328422B3E429B9B9B40
:1029A4009B45729B9B9B9B9B9B9B9B9B757D808369
:1029B4009B9B9B868C8F92959800C2F80C354FEAAE
:1029C4005318B8F1010F14BFB646BE4603F01F04F6
:1029D4000CFA04F4CEF80840012402E0C2F81435DD
:1029E4000024A64623E0C2F80835E8E70024C2F82C
:1029F40008354FEA5319B9F1010F14BFB046B84670
:102A040003F01F0E0CFA0EFEC8F80CE04FF0010E96
:102A14000DE0C2F80C350124EBE7C2F81035DFE70E
:102A2400C2F80835002DDBD100240625A64650F84F
:102A340004AB03F01F090AF40058B8F1000F4FEA81
:102A440053131CBF01244FF0000E012B0CBFB846DA
:102A5400B04608EB8908D8F80032CAF3C11A03F06B
:102A6400E0492B0243EA8A0343EA0E0343EA4403A0
:102A740043EA0903C8F8003278E7C2F80C35D1E715
:102A8400C2F860350468C4F38034002CC3D096E7E0
:102A9400C2F86435F6E7C2F86835F3E7C2F86C3576
:102AA400F0E7C2F8243501244FF0000EBFE7C2F866
:102AB400283584E7C2F83035F5E7C2F83435F2E753
:102AC400C2F83835EFE7C2F83C35ECE76FF0850023
:102AD4004FE700BF00258450002884504FF47F0343
:102AE400D3F83021D3F83431072A05D1023B032B24
:102AF40002D8024AD05C704700207047F65A0000A2
:102B04004FF05023D3F85825034B02F00302D3406F
:102B1400024A1360704700BF0020A107480000204C
:102B240008B5FFF7DBFF58B14F4BD3F8202A3AB969
:102B34000D21C3F8201A0121C3F81C19C3F81C295C
:102B44000022D30003F57F03D3F80013013107D02B
:102B5400D3F800130132D3F80433202A0B60F0D1E8
:102B6400FFF7BCFF002876D1FFF7B8FF40B13F4B19
:102B74003F4AC3F830254FF050230122C3F85825AB
:102B84004FF47F03D3F83021D3F83431072A09D125
:102B9400023B032B06D8374AD35C1BB10022364BC9
:102BA400C3F84C25FFF79AFF50B14FF05023D3F8E8
:102BB4000024D10742BF0022C3F81421C3F818210E
:102BC4004FF47F03D3F83021D3F83431072A09D1E5
:102BD4004FF05023D3F80024D20744BF6FF0010212
:102BE400C3F80024FFF77AFF18B165221E4BC3F81F
:102BF4000C274FF47F03D3F83021D3F83431072A5C
:102C040016D11D4BD3F82034002B11DA4FF050238A
:102C14000322C3F8182501229A60D3F80421002A5C
:102C2400FBD00022C3F804210122DA60C3F818257E
:102C3400124AD2F88C3043F44063C2F88C30104A04
:102C4400104B1168C3F84415D269C3F84C25BDE88C
:102C54000840FFF755BF2922034BC3F80C27032272
:102C6400C3F83C2780E700BF0040005000900350A9
:102C74004400EFBEF25A00000020035000ED00E0D3
:102C84000080FF000060005070B501250268B2FAB0
:102C940082F3C3F11F03DBB205FA03F422EA04044E
:102CA400D0E8EF6F964204D1C0E8EC4FBCF1000FBE
:102CB400F6D1EBD101480B7070BD00BF0000AD0B25
:102CC40010B50368CB40DB0710D401238B400268A6
:102CD40043EA0201D0E8EF4F944204D1C0E8EC1F6C
:102CE400BCF1000FF6D1F2D1014810BD0148FCE758
:102CF4000000AD0B0400AD0B044B1A7922B901227C
:102D040018601A7102487047024870472009002071
:102D14000000AD0B0C00AD0B4FF0502310B5D3F8F1
:102D2400002152B10020C3F80001D3F80021012290
:102D3400C3F80823234B1B6898474FF05023D3F85C
:102D440004218AB10022C3F80421D3F80421D3F862
:102D54001824D3F8181402F00302012A4FF00201D8
:102D640028D1C3F818159A604FF05023D3F82021C6
:102D740062B10022C3F82021D3F820214FF48072DD
:102D8400C3F808230F4B04201B6898474FF05023C7
:102D9400D3F82421AAB10022C3F82421D3F8242192
:102DA4004FF40072C3F80823064B0520BDE8104019
:102DB4001B681847C3F80813024B01201B68984787
:102DC400D2E710BD2009002001460148FFF75CBF8F
:102DD4004C000020036803F01F020260034A044809
:102DE4005B09012B18BF1046704700BF00258450B3
:102DF40000288450034B083033F81000C0F340100F
:102E0400704700BF5000002070B50D4C00F108035E
:102E140034F813300546DA050E4607D5C3F34323C9
:102E240004EBC302526854F833309847A3682BB1BB
:102E340031462846E268BDE87040184770BD00BFBF
:102E44005000002010B4124A083032F81030D9056E
:102E54001BD5C3F3432123F4F85322F81030002088
:102E640002F10E0434F8023F13F4807F03D0C3F35D
:102E74004323994209D001303028F3D1002342F88A
:102E84003130044810BCFFF71BBF10BC704700BFB3
:102E940050000020C400002038B50246FFF7AAFF06
:102EA4000B4C02F1080560B1002134F815305B0BBE
:102EB4009B0003F1A04303F55043C3F81015C3F876
:102EC40010151046FFF7BEFF002324F8153038BD57
:102ED400500000202DE9FF41044690461D4601B3F1
:102EE4004F4E00F1080736F817309B0702D5FFF75D
:102EF40081FF28BB00232046CDE900338DF80E3036
:102F04008DF80F300DF10F020B460DF10E0102F09A
:102F140020F936F8173023F0020343F0010326F8B2
:102F24001730B8F1000F2DD03D4E04F1080736F8E4
:102F3400171098F800008A07D8F8043002D5CBB1EE
:102F4400384821E021F02001C904C90C26F81710E3
:102F540083B10328F4D8D8F8043093F800C062464B
:102F6400920002F1A04202F5504280B9C2F8100565
:102F7400C2F8100536F8173023F01C0343EA800327
:102F840026F817301DBB284804B0BDE8F081D2F8FC
:102F9400103541EA4C3123F00303C2F81035D2F85E
:102FA400103541F0200123F44F3323F44073C2F869
:102FB40010352302D2F810E503F47C5343EA0043AE
:102FC40043EA0E03C2F8103526F81710D2E720465C
:102FD400D5E90067FFF736FF002ED4D0104DD5E9B0
:102FE4000023964201D19F4218D010480DF10F01E1
:102FF400FFF74AFE0C4B9842C6D19DF80F2005EB13
:10300400C20308345F6035F8143045F8326043EA8F
:10301400422343F4807325F81430B4E70022EEE72A
:10302400500000200400AD0B0000AD0BC4000020D4
:10303400F0B50446154685B019B3344E00F10807BF
:1030440036F81720930703D4FFF7D4FE00285AD18B
:1030540012F01C0F02D04B78012B54D001238DF8B1
:103064000F3000234A1CCDE9001320468B1C0DF1C0
:103074000F0102F06EF836F8173043F0030326F818
:10308400173015B9224805B0F0BD204E04F10807E9
:1030940036F81700830736D595F800C0002361463B
:1030A40020F02000890001F1A041C00401F5504145
:1030B400C00CC1F8103526F81700C1F810356A782D
:1030C400002ADFD0D1F81035AD7823F4991323F416
:1030D400F853C1F81035D1F810E5230203F47C53FA
:1030E400120402F4403243EA0E0313432A0502F4A5
:1030F400801240EA4C30134340F02000C1F81035F0
:1031040026F81700BEE70348BDE700BF50000020C3
:103114000000AD0B0400AD0B014BC3E90201704785
:103124005000002008B50246FFF764FE38B1054B95
:10313400083233F8123004485B0B0B7008BD0348A7
:10314400FCE700BF500000200000AD0B0400AD0BF5
:1031540038B50F4C94F87850BDB96022294604F173
:10316400100001F035FD0D20FEF72AF9094B0A483D
:10317400C3F87C51D3F87C214FF00042C3F80423F8
:10318400012384F87830636738BD0448FCE700BF46
:103194005000002000D000500000AD0B0500AD0B26
:1031A400034B93F87800003818BF0120704700BF24
:1031B4005000002001460148FFF782BDC0000020F6
:1031C40001460148FFF760BDC000002037B5044642
:1031D400FFF710FE1E4B04F1080233F81230E8B179
:1031E40013F002051AD15B0B9A0002F1A04000F51E
:1031F400514002F1A042056002F550420068D2F845
:10320400100540F00100C2F8100529B1012202FAAC
:1032140003F3104AC2F8043303B030BDC3F382038E
:10322400042B11D0052B11D001A80194FFF7D2FD76
:10323400019B0169D94001F001010231204603B02C
:10324400BDE8304001F0CEBF0321F7E70221F5E7E6
:103254005000002000D0005008B50246FFF7CAFD18
:10326400C0B10F4B02F1080133F81130990711D4A2
:1032740001225B0B9A400B499B0003F1A043C1F868
:10328400082303F55043D3F8102522F00302C3F8B2
:10329400102508BD0021BDE80840104601F0A2BF7A
:1032A4005000002000D0005013B5104B00F108026C
:1032B40033F812300446DB0716D5FFF7CDFF20465E
:1032C400FFF7EAFD01A80194FFF784FD019B00EBE1
:1032D4008300D0F8003203F0E04343F00203C0F867
:1032E4000032034802B010BD0248FBE75000002042
:1032F4000000AD0B0400AD0B2DE9F04F00260122B8
:103304003446634B6348644987B01D6835B1D0F8CF
:10331400045315421EBF1C601D68164304338B42C0
:103324004FEA4202F1D1DFF86CA1DAF87C31002BCC
:1033340000F09180DFF86481D8F820300493C8F855
:103344002030574B1A6A05921A624FF000090DF1AA
:10335400100B4FEA4913009348E094FAA4F4B4FA2A
:1033640084F4009B4F4A1C4404F1080332F81370A0
:103374000123E00804F0070203FA02F21BF800300C
:10338400039423EA02030BF8003003A8FFF722FD9D
:10339400039BB908803350F82330C7F382054A07EA
:1033A4002F46C3F301432BD520463946DDB2FFF740
:1033B4002BFD03A80394FFF70DFD039B803350F806
:1033C4002330C3F301439D4207D10021204601F07D
:1033D40009FF2946204601F005FF03A80394FFF7DF
:1033E400F9FC0122039B02FA03F303625BF8294010
:1033F400002CB2D1B9F1000F1DD14FF00109A8E79B
:10340400022B0CD10321204601F0ECFE05F005034C
:10341400012BE2D139462046FFF7F6FCDDE7022115
:103424002046019301F0DEFE032DF3D0019B032B14
:10343400D3D1022DEDE7CAF87C41DAF87C31D8F813
:10344400203017490493C8F820300A6A13430592C0
:103454000A627FF47AAF012416B907B0BDE8F08F91
:1034640096FAA6F3B3FA83F304FA03F29B0003F18A
:10347400A04303F55043D3F81005D3F81015C0F357
:103484000520C1F3014126EA0206FFF7BDFCE3E78C
:1034940000D1005000D0005020D1005000258450AD
:1034A40000288450500000200F4B70B553F8204082
:1034B400013053F82060A64200D870BDD4E900352D
:1034C400284698476DB138B10028B8BF4042FF285C
:1034D400A8BFFF20EB681870EA68537843F0010333
:1034E40053700834E7E700BF90590000012208B583
:1034F400094B03201A70FFF7D7FF00F0FFFF0420E9
:10350400FFF7D2FF00F02AF9FCF790FF034A137B80
:1035140023F00103137308BD3B0B00206802002055
:1035240008B50348034A0021121A01F091FE08BDB0
:10353400900100203C0B00200023012270B586B0CE
:10354400CDE904230F220193CDE9023218234FF46D
:10355400A0720E4D0E4E03FB00550E4906EBC0162D
:10356400044602FB00110C4B3046009500F0C6F8EF
:10357400737B2C7523F004037373084B013403EB42
:10358400C423EE606B6006B070BD00BF2809002044
:10359400E80100204013002019380000400B0020EF
:1035A40080B50020A6B0FFF77FFF2D4B03F5006226
:1035B40082F3088883F30A880024E023294D2A4EE5
:1035C40085F82230EC772C766C76AC7685F8204042
:1035D4006B6A264F43F4E0236B6285F82340FEF7C1
:1035E400DBF8FDF7CFFE4FF0FF33AB62EB62FEF783
:1035F400DDFAFEF783F940F20113ADF8243006AB8F
:10360400B360CDE91F44229401F0FBFD0120FFF7D4
:103614004BFF0220164DFFF747FF00F04FFC154B00
:10362400F5610593012314494FF48062CDE9034306
:1036340028463B46CDE90144009400F05FF8064675
:103644006A7B284622F004026A7301F0CAFE20460F
:10365400FFF772FF3A4631462846FDF775FF00BF73
:10366400400B002000ED00E028090020F1340000A8
:1036740068020020FA5A000080140020002038B5A7
:10368400054C064DAC4200D338BD204601F0E4FDA4
:103694000028F9DB1C34F5E73C0100203C01002044
:1036A40073B50C464FF02005EFF3118185F31288B2
:1036B400BFF36F8F45695DB125602B6843618369F2
:1036C40001338361002081F31188BFF36F8F11E010
:1036D40052EA030603D16FF00B002560F3E7CDE94E
:1036E40000230246083000F0F3FA18B9024B9B6835
:1036F4005B69236002B070BD280900202DE9FF41F9
:103704000E9E00F1580506730426C0E916550025DF
:10371400044646730D9EC0E906558673D61D0C9A61
:1037240026F00706C0E919168560C573C5660292BE
:103734000B9A01EB060801920A9A00924246FDF7A1
:10374400E7FE054B65659B6803B11B6F4046236725
:1037540004B0BDE8F08100BF280900202DE9F04342
:10376400294C2A4D87B02646AE4204F130040FD3CB
:1037740000F074FB4FF4004640F2E737224CDFF8C8
:103784009090AC4220D307B0BDE8F04300F07ABB80
:1037940054F8043C059354F8103C049354F8143C36
:1037A400039354F8183C029354F81C3C019354F8C6
:1037B400203C009354E90A2354E90C01FFF79EFFCF
:1037C40054F8303C5E65CEE7636A5A1C0DD0002184
:1037D400384623EAE373C3FB060151EAC333D4F842
:1037E400008004D1404600F0E9FA3034C9E74FF4D0
:1037F4007A720023FCF7ACFC02460B4608F1180071
:10380400494600F0D1FCF0E71C5800001C580000A9
:103814005353000008B50B4C0B4D4FF02002EFF34F
:10382400118382F31288BFF36F8F01F042FE2B786D
:10383400A06113B9FDF7ACFDEFE7FDF7DDFB002850
:10384400EBD1F7E7280900203B0B00202DE9F341D9
:10385400044617461E464FF02003EFF3118883F306
:103864001288BFF36F8FC368334A7BB18068916855
:10387400884219D057EA060318D188F31188BFF398
:103884006F8F6FF00F0002B0BDE8F081916891F97D
:103894000E100133E36093682161A36088F31188FB
:1038A400BFF36F8F0020EEE72169F2E791F90E1064
:1038B40090F90E306FF07E029942A8BF19469142EA
:1038C400B8BF11468B422EDD01F020FD054622468D
:1038D4004146CDE90076194800F0FAF90028E1D014
:1038E4004FF02003EFF3118683F31288BFF36F8F39
:1038F400A068D0B1236821699C420AD04BB193F9E6
:103904000E309942A8BF19466FF07E039942B8BFA2
:10391400194601F0FBFC40B13146084800F03CFA7E
:103924006FF00A00AFE70025D1E7002DF4D186F34C
:103934001188BFF36F8FF3E7280900203C0B0020A8
:1039440038B5836804466BB3194A926893422CD104
:10395400C368012B03D9013BC360002038BD4FF07D
:103964002003EFF3118583F31288BFF36F8F01698E
:10397400806801F0CBFC204601F053FDA06058B1F3
:1039840090F90E2022610022826701F02AFD294667
:10399400084800F001FAE0E7E06085F31188BFF31E
:1039A4006F8FDAE76FF01500D8E74FF0FF30D5E7F7
:1039B400280900203C0B002038B504464FF02003B2
:1039C400EFF3118583F31288BFF36F8F01F029FDA4
:1039D40048B10022826701F004FD2946BDE8384061
:1039E400044800F0D9B9D4E902329A4218BF01332D
:1039F400A360F2E73C0B002013B54FF02004EFF373
:103A0400118184F31288BFF36F8F846844B1013C41
:103A1400846081F31188BFF36F8F002002B010BD62
:103A240052EA030406D181F31188BFF36F8F6FF05C
:103A34000F00F3E7CDE900230246024800F048F9FD
:103A4400ECE700BF3C0B002038B5074D2C6854B19F
:103A5400FEF77AFF054B04441C6128680021BDE889
:103A6400384001F036BD38BD58090020280900202F
:103A740038B50D4D2B4653F8204F9C4200D004B965
:103A8400EC68AB6838B95A7BD20604D1A26912B982
:103A9400DA897F2A05D89C4202D02046FFF7D4FF5A
:103AA4002346EB6138BD00BF2809002070B590F9AA
:103AB4000D200146002A437B04DA03F07F0343739D
:103AC40001F033FC154A4B7B104663F07F034B73C4
:103AD40050F8203F546A834208BF002323B9C1E948
:103AE4000004216051620CE091F90E5093F90E60CC
:103AF400B5420ED0AE420CDD5868C1E90030016019
:103B040059609068BDE87040431A58425841FFF725
:103B1400AFBF9C42E3D01B68E0E700BF2809002048
:103B240070B490F90D30427B002B29DBD30627D1EA
:103B340083692BBB134962F07F0242730A4652F831
:103B4400204F944218BF23464C6A23B9C0E900248D
:103B5400206048620CE090F90E5093F90E60B54273
:103B64000AD0AE4208DD5A68C0E9003210605860DD
:103B7400002070BCFFF77CBFA342E7D01B68E4E7DA
:103B840070BC70472809002008B590F90D20014643
:103B9400002A437B04DA03F07F03437301F0C5FB7F
:103BA400044B9868431A58425841BDE80840FFF74F
:103BB4005FBF00BF2809002070B515461C460646A5
:103BC40001F0E7FBB4F1FF3F08BFB5F1FF3F08D0B8
:103BD4002A46234606F118000249BDE8704000F069
:103BE400E3BA70BD53530000F8B504460D464FF0D8
:103BF4002003EFF3118783F31288BFF36F8F00263E
:103C04004FF4004C40F2E73031464FF47A7200230F
:103C1400E4FB0C01FCF79CFAB44202DD0228B8BFB5
:103C24000220074A074B1060074A98681E61156016
:103C3400FFF70AFF87F31188BFF36F8FF8BD00BF4A
:103C440058090020280900205409002038B54FF0F5
:103C54002003EFF3118583F31288BFF36F8F174BA3
:103C6400174A9C6811688C4207D12046FFF7ECFE86
:103C740085F31188BFF36F8F38BD00211160114A9D
:103C84001268C2B1E2897F2A15D8627BD20612D1AA
:103C94000D4A94F90E10126891420CDB0B4A9442BF
:103CA40009D01A69824203DC2046FFF7FFFEDCE7F5
:103CB400121A1A61DCE70022FBE700BF2809002082
:103CC400500900205809002054090020E801002070
:103CD40070B50C480C4D86680C462E601146DDE923
:103CE40004234FF02006EFF3118586F31288BFF307
:103CF4006F8F8068FFF760FF2046BDE87040FDF7D6
:103D0400B1BB00BF2809002050090020F8B50446C3
:103D14004FF02003EFF3118683F31288BFF36F8F04
:103D2400437B49B2DA0619D18569BDB903F07F0333
:103D3400437301F0FAFA437B164A63F07F0343733B
:103D44001346817353F8200F984218BF0546506AF2
:103D54005DB9C4E900300460546211E00020A1732D
:103D640086F31188BFF36F8FF8BD95F90E70B942D1
:103D74000BD08F4209DD6B68C4E900531C606C6092
:103D84000120FFF775FE0120EAE7A842E1D02D6883
:103D9400DEE700BF2809002049B9EFF3058030B9F8
:103DA400054BDA699B689A4201D0FDF75BBB81F34E
:103DB4001188BFF36F8F70472809002010B54FF0AA
:103DC4002002EFF3118482F31288BFF36F8F427BDA
:103DD400510704D484F31188BFF36F8F10BD22F010
:103DE40004024273FFF79CFE2146BDE810400148DF
:103DF400FFF7D2BF3C0B002070B50446183001F029
:103E040042FB4FF02003EFF3118683F31288BFF3D4
:103E14006F8F94F90D20637B002A05DA03F07F038A
:103E24002046637301F081FA0B4D637BA86843F06D
:103E340010036373031B58425841FFF719FE86F3BE
:103E44001188BFF36F8FAB68A34203D1BDE8704004
:103E540001F00FBB70BD00BF280900204FF0200304
:103E6400EFF3118183F31288BFF36F8F044B9A68C9
:103E7400D37B013BD37381F31188BFF36F8F7047FA
:103E84002809002010B54FF02003EFF3118483F3C9
:103E94001288BFF36F8F084B00209A68D37B0133DD
:103EA400D373FFF7E5FD84F31188BFF36F8FBDE88B
:103EB400104001F0DEBA00BF280900200021044BA5
:103EC400084603F12002C3E90822FFF78DBE00BFB4
:103ED40028090020F8B54FF02003EFF3118583F390
:103EE4001288BFF36F8F19498868437B03F07F03FF
:103EF400437301F01AFA08468B685A7B62F07F021A
:103F04005A7350F8202F4C6A824208BF002222B90B
:103F1400C3E9000423604B620CE093F90E6092F94C
:103F24000E70BE420ED0B7420CDD5168C3E90021C9
:103F34000B6053600120FFF79BFD2846BDE8F84065
:103F4400FDF790BAA242E3D01268E0E72809002006
:103F540050EA01032DE9F04105460E4603D1FFF76F
:103F6400B9FF00202CE0831C71F1FF332ADB01F040
:103F7400CCFA44194FF02003EFF3118883F312882D
:103F8400BFF36F8F114F124BB8681860FFF7FCFD39
:103F9400B86810492A463346183000F005F9BA6863
:103FA4004046537B43F010035373FDF75BFA01F073
:103FB400ACFA201A63EB0303012873F10003D0DB8E
:103FC400BDE8F0816FF00104241AD3E7280900202A
:103FD4005009002053530000B1F1FF3F08BFB0F176
:103FE400FF3F08B506D1084B9868FFF705FF4FF06F
:103FF400FF3008BDFFF7ACFF4FF47A7380FB030377
:10400400C00B40EA4340F4E728090020014B9868BC
:10401400704700BF280900202DE9F04104464FF005
:104024002003EFF3118683F31288BFF36F8F037BB2
:10403400D9070BD586F31188BFF36F8F404080F307
:1040440011884FF0040002DFBDE8F081437B1A07BA
:1040540004D586F31188BFF36F8FF5E723F02002B0
:1040640042F00801D20920D14173A36813B120465C
:1040740001F063F904F1180001F005FA4FF00008AB
:1040840004F15807A56DBD4200D0B5B90120FFF772
:10409400EFFC104B9B68A342DBD1EFF30583002BAD
:1040A400D7D13046FDF7DEF9D3E703F05F0343F0E1
:1040B4000803437301F039F9D7E7284601F03DF9C5
:1040C40005F1180001F0DFF92846C5F87880FFF7FC
:1040D40027FDD7E72809002008B50648064A0749FE
:1040E400121A01F0B7F8BDE80840054A0549064828
:1040F40001F0B0B8000000208C010020305B00000B
:1041040000000000305B000000000020034B1B682F
:104114000BB9FEF719BC0020704700BF5C090020F2
:1041240010B5114B1C689C420AD1FFF7EFFF6FF0EA
:1041340000400E4B1B6913B19842A8BF184610BD2E
:10414400FFF7E4FF002CF2D0D4E904321B1A62EB2F
:10415400E072B3F1004F72F10001E8DA002AACBF5B
:1041640018460020E5E700BFCC0000202809002005
:1041740030B570B10B4B5B6898420AD0036843B109
:10418400D3E90421D0E90445121941EB0501C3E93F
:104194000421D0E9003213605A600023C0E90033DF
:1041A40030BD00BFCC000020B3F1FF3F08BFB2F127
:1041B400FF3FF8B504461D46164661D081604FF0B6
:1041C4002003EFF3118783F31288BFF36F8F01325B
:1041D40075F1FF3324DA6FF001032F49D1E9002090
:1041E4009B1A4FF0FF3262EB00009E1B60EB050050
:1041F400012E70F1000301DA01260020C4E90460F5
:10420400264ED6F800C07568B44508BF4FF0000CC0
:10421400BCF1000F0DD1C4E900652C6074601CE092
:10422400FFF774FF013645F10005361845EBE070E1
:10423400E4E7DCE90420D4E90431934271EB000E95
:104244001FDAD21ADCF8043060EB0100CCE9042058
:10425400C4E900C31C60CCF804403368B3420BD0FB
:104264009C4209D1FFF75CFF18B10D4B1B698342D7
:1042740002D00021FEF738FB87F31188BFF36F8F5C
:10428400F8BD9B1A61EB0001AC45C4E90431C2D00E
:10429400DCF800C0BCE700BFE8020020CC0000202E
:1042A400280900202DE9F8430446FFF7CFFC4FF01E
:1042B4002003EFF3118683F31288BFF36F8F244F2B
:1042C400DFF89080D8F80000234A40453C604FEA6C
:1042D400E471D2E9003E0BD050B1D0E9045CAC42A9
:1042E40071EB0C0917DA2D1B6CEB010CC0E9045CB3
:1042F400E3184FF000044EEB0101C2E900313C60C9
:10430400FFF70EFF2146FEF7EFFA86F31188BFF39D
:104314006F8FBDE8F883EB184EEBE571C2E900310D
:1043240000220023C0E90423FFF722FF86F311884B
:10433400BFF36F8F836898474FF02003EFF3118624
:1043440083F31288BFF36F8F3C68641BBAE700BF26
:104354005C090020CC000020E802002010B54FF0DA
:104364002003EFF3118483F31288BFF36F8FFFF7F9
:10437400CDFE0346054AD2E90001181841EBE3716A
:1043840084F31188BFF36F8F10BD00BFE8020020D3
:1043940070B504464FF02003EFF3118583F31288C0
:1043A400BFF36F8FD0E90A32013342F10002022BCE
:1043B40072F1000222D301F0ACF8D4E90A320130E0
:1043C40041F10001C01841EB0201012871F1000123
:1043D40032DB01F09EF8013041F10003D4E90A21F7
:1043E40080186FF0010243EB01034FF0FF31121A02
:1043F40061EB030320461A49FFF7D6FE236B013312
:104404002363236A73B185F31188BFF36F8F20464A
:10441400236A98474FF02003EFF3118583F3128842
:10442400BFF36F8F54F8186FA64200D04EB985F3CE
:104434001188BFF36F8F70BD6FF001024FF0FF332F
:10444400D8E7304600F0DDFF0023B36785F3118819
:10445400BFF36F8F3046BDE8704000F0C2BF00BFAD
:1044640095430000B3F1FF3F08BFB2F1FF3F2DE9D0
:10447400F04719460546DDE908601446914698461A
:1044840037D0B0F1FF3F08BFB6F1FF3F3746824651
:1044940011D050EA06030ED0721C70F1FF330ADB10
:1044A400022E844670F10000BCBF02274FF0000CBE
:1044B400013F4CF1FF3A631C71F1FF330ADB012C1D
:1044C40071F100032246BCBF0122002112F1FF3921
:1044D40041F1FF38284600F0D6FF0023C5E90A7AE7
:1044E4002B634A4643462846BDE8F0470249FFF796
:1044F4005BBEBDE8F08700BF95430000014800F0B3
:10450400B9B900BFFF5A000010B50A4C23681BB1AB
:1045140001230020236010BD00F0F4F80028F7D038
:104524000138072803D8044B53F8200010BD034872
:1045340010BD00BF60090020A8590000FE8FFFFFD6
:10454400BFF34F8F0549064BCA6802F4E062134378
:10455400CB60BFF34F8F00BFFDE700BF00ED00E06D
:104564000400FA0530B44FF0FE3200250B4B0C4C1E
:104574000C494968C3F80024C3F80424C3F8082488
:10458400C3F80C24C3F81024C3F81424C3F8182463
:10459400C3F81C24C4F8005530BC084700508450AC
:1045A40000408450D4000020024BD0E90012C3E93B
:1045B40000127047D400002010B5044650B163685F
:1045C40013F0685F05D0064A934202D0002362606C
:1045D400236010BD034B04485B689847EFE700BFB6
:1045E4002C5F5CA9D4000020C8590000C8B14368FE
:1045F4000D4A934213D013F0685F0ED0012350E8A4
:10460400002F194640E8001C9CF0000FF7D1012A46
:10461400F5D0BFF35F8F002070470448704704480B
:1046240070476FF4E04070472C5F5CA9E98FFFFF8F
:10463400EA8FFFFF034680B1426809498A420AD0E3
:1046440012F0685F05D0BFF35F8F002210461A6036
:10465400704704487047044870476FF4E04070475F
:104664002C5F5CA9E98FFFFFEA8FFFFF10B50446BA
:1046740020B10023034A2360626010BD0248FFF7A3
:1046840071FFF6E73A00003AF059000070B5194C92
:10469400D0F804C00668C4F804C0D0F808C0C068E4
:1046A400C4F808C0E06026600868134B134D186016
:1046B4004868D5F818215860886812F0685F9860D7
:1046C400C8680969D860196112D000230C4A05F53D
:1046D4008A70C5F81431C5F8B831C5F81821C5F881
:1046E400BC21B047236805F5DC70BDE8704018476D
:1046F40070BD00BFE4000020F40000207809002011
:104704002C5F5CA908B500F011F830B900F010F87E
:1047140038B9054AC2F80C0A08BD00F037F803207E
:1047240008BD042008BD00BF00508450002070471D
:1047340010B5114800F048F800B110BD0F4800F062
:1047440043F80028F9D10E4C204600F03DF800282B
:10475400F3D10C4B0C481C6000F036F801460028DD
:10476400EBD100F02DF8044608B1204610BD00F04E
:104774003FF82046FAE700BF2C010020200100206A
:1047840028010020300100202401002008B5084839
:1047940000F024F8074800F021F8074800F01EF85C
:1047A400064800F01BF8BDE8084000F00BB800BF55
:1047B4002C010020200100202801002024010020D9
:1047C40000207047704700BF08B5034B02681B68A0
:1047D40010689847002008BDE400002008B5034B8A
:1047E40002685B6810689847002008BDE400002058
:1047F40070B5094C094D2069AB68984718B1084B4E
:1048040008485B6898470021074AEB6811602069F3
:10481400BDE87040184700BFF4000020E400002009
:10482400D4000020145A000074090020034601211A
:104834001B790068994083685B6918470346F0B4A4
:1048440019790068DB8801250669DA07346854BFE2
:1048540043F4D01383F4B0138D4023F48012DB07A8
:1048640087684CBF2C43AC4334603B68F0BC1847AA
:10487400002070470FB407B504A951F8040B019147
:10488400FBF71AFE03B05DF804EB04B0704704466E
:1048940008B5084611461A46A047FFF7B7FBFDF7CF
:1048A40017F8038B13F0070305D10368002B0CBF23
:1048B400002003207047022B05D1408BB0FA80F012
:1048C400400980007047012B05D10368002B0CBF01
:1048D4000020052070470020704710B50C4600B139
:1048E40011B96FF0150010BD081D00F095F80028EF
:1048F400F9D1A368032BF6D9F3E72DE9F0410D466E
:1049040007461946281D90461E4600F096F80446B0
:1049140038B13346424629463846A446BDE8F041FC
:104924006047BDE8F08110B44FF02004EFF311822A
:1049340084F31288BFF36F8F416110BC0121FBF730
:10494400C9BD38B50C46054658B151B10B6843B1E1
:104954004B6833B11C22002100F03AF900202C618D
:1049640038BD6FF01500FBE770B505460E46FFF73E
:10497400B4FF041E15DB4FF02003EFF3118283F321
:104984001288BFF36F8F4FF6FF716B8B2C8B8B42AA
:1049940004F0070407D182F31188BFF36F8F6FF01F
:1049A4000A04204670BD022C0CD101336B8382F3C0
:1049B4001188BFF36F8F0023224631462846FFF744
:1049C4009CFFEEE7062C14D8DFE804F0041313135D
:1049D400041A0400002333606B683BB9C5E9006620
:1049E400ACB902212846FBF775FDDAE71E606E605C
:1049F400F6E782F31188BFF36F8F6FF00404D0E7FA
:104A040082F31188BFF36F8F6FF08504C9E782F3D7
:104A14001188BFF36F8FC4E7034658B1426802F0B0
:104A24000302012A03D0032A04D1026812B1002030
:104A3400986070476FF0150070474268034602F0B3
:104A44000302032A4FF00002816014BF104600687D
:104A54005A6070472DE9F84F9A46D37880466F2BF9
:104A64000F461546A3F1410B29D024D8582B0CBF6F
:104A740010260A26DDF8289032460023404639469F
:104A8400FBF766FB092AD4B21ED83034B045E4B231
:104A940077F1000709F8014D01D3D14511D82B78DE
:104AA4009B0605D5082E15D1AB7843F00803AB70EF
:104AB4004846BDE8F88F03F0F703702BD7E70826C4
:104AC400D8E780460F46D7E7BBF1190F94BF3734B8
:104AD4005734DBE7102EEBD1AB7843F01003E6E755
:104AE4002DE9F0410746884615461E461446B44251
:104AF40005D30EB1601B08E02378002BFAD04146A1
:104B040014F8010BB8470028F1DABDE8F0817047CA
:104B1400002383F31188BFF36F8F7047002008B51B
:104B2400FCF798F900F079BB0146006800F075BB0A
:104B340000210120FFF7F6BF08B5FCF773FCBDE8C0
:104B44000840FCF735BD436E83F30B88704740E89B
:104B540000F313F4803FD8B208BF6FF0150070471C
:104B64007FB50A894E890B684D6802F01F0242EA3C
:104B7400461200938DF8082023F01F036A1E134485
:104B840023F01F030728039304D86946FCF7D2FED9
:104B940004B070BD6FF01500FAE7034600201A5CFC
:104BA40002B970470130FAE7034600201A5C0AB1E3
:104BB400884200D170470130F8E710B5431E0A441B
:104BC400914200D110BD11F8014B03F8014FF7E7F2
:104BD4000346C9B20244934200D1704703F8011B53
:104BE400F9E74FF0FF3070470C220369C9B201FBAB
:104BF4000233986F00F0070070474FF02003EFF383
:104C0400118283F31288BFF36F8F036803F0C0032C
:104C140043F00203036082F31188BFF36F8F704780
:104C240070B5C9B203694FF02004EFF3118584F322
:104C34001288BFF36F8F0C2606FB0134A46F14F0A7
:104C4400C00408D0A24206D085F31188BFF36F8F49
:104C54004FF0FF3070BD012206FB01339A6785F3E4
:104C64001188BFF36F8F436803EBC1035B689847F8
:104C74000020EFE78022FFF7D3BFF8B5069F046951
:104C8400C9B24FF02005EFF3118685F31288BFF304
:104C94006F8F0C2505FB0144A56F05F0070CBCF1D3
:104CA400010F0CD1A76786F31188BFF36F8FC4E996
:104CB4001C23436853F8313098470020F8BD05F0B1
:104CC400C005AF4286F31188BFF36F8F0CBF6FF03E
:104CD40077004FF0FF30F1E713B580240094FFF71D
:104CE400CCFF02B010BD10B41C240069CBB203FB8E
:104CF4000400002110BC1047032000F0C9B90220B1
:104D040000F0C6B9002000F0C3B9032000F01FBAB8
:104D1400022000F01CBA002000F019BA1046FEF779
:104D24004BBE436800205B681B690B607047436897
:104D340002EA01005B6821EA020198600020D96060
:104D44007047436800205B6899607047436800209F
:104D54005B68D960704743685A68536821EA030066
:104D64000B4090600020D360704710B50369586809
:104D7400F8B1884219D19C680868A142586000D1F2
:104D84009860002008602AB15A680A609A685960DD
:104D940002B99960002010E0814206D108682060C1
:104DA40098688142EDD19C60EBE7044600680028D6
:104DB400F2D1002AE8D16FF0150010BD0B4602694C
:104DC400D2E9010183E803000020704743681B68AF
:104DD400D3F88004C3F880047047436802691B68F1
:104DE400D3F8100150B10020526912780A70C3F848
:104DF4001001D3F8102101221A6070474FF0FF30E0
:104E0400704702680346D2F8580140B95B689B07B3
:104E140006D4D2F82001003818BF012070470120C1
:104E2400704742681368D3F80413C90518D5D3F83A
:104E34002011A9B14FF02000EFF3118180F3128803
:104E4400BFF36F8FD3F8200130B10020C3F82001E5
:104E5400D3F820010120D86081F31188BFF36F8F4C
:104E64005268D20615D54FF02001EFF3118281F379
:104E74001288BFF36F8FD3F8581111B10021C3F812
:104E840000154FF48001C3F8081382F31188BFF3AF
:104E94006F8F7047704770B56FF06046436813605A
:104EA400057A4468354404EBC504A34202D96FF083
:104EB400010070BD5C798C4201D00833EFE700201B
:104EC400F7E7002008B5FCF7B9FCFFF71DBB08B5F0
:104ED400FCF75AF9FCF740FABDE80840FFF714BBA9
:104EE400004700F018BB73B5032800F2A780DFE881
:104EF40000F0021927354FF050230222C3F808238B
:104F04000022C3F80421D3F804210122DA6000242A
:104F140001238DF80730032800F29080DFE800F0C9
:104F24002C69789A4FF0502301220021C3F80823FA
:104F3400C3F80011D3F800110DF107045A60E7E734
:104F44004FF050234FF40072C3F808230022C3F833
:104F54002421D3F8242101225A62D8E74FF05023A8
:104F64004FF48072C3F808230022C3F82021D3F839
:104F740020210122DA61CAE742F210754FF050266F
:104F84006CB3D6F8183403F003032370D6F818343E
:104F9400D90353D59DF8070001284FD1FFF7A1FF8E
:104FA400013DEDD14AE09DF80700012846D1FFF705
:104FB40098FF013D52D141E09DF8070001283DD101
:104FC400FFF78FFF013D39D0C4B1D6F80C3403F09C
:104FD40001032370D6F80C34DB032FD5ECE7D6F8A5
:104FE4001834DA032AD50120FFF77BFF013DF6D1FF
:104FF40024E042F210754FF05026E5E7D6F80C3461
:10500400D8031BD50120FFF76CFF013DF6D115E055
:1050140042F210754FF0502694B1D6F85C3403F088
:1050240001032370D6F85C34D90307D59DF8070033
:10503400012803D1FFF755FF013DEDD102B070BD4A
:10504400D6F85C34DA03F9D50120FFF74AFF013DB5
:10505400F6D1F3E742F210754FF05026D6F85434E7
:10506400DB03EBD5002C9ED10120A0E708B5052079
:10507400FCF7B4F910B90520FCF7A2F94FF050235E
:105084000122C3F81825C3F81425C3F8802508BDE8
:1050940008B5032819D8DFE800F002323E4C4FF07F
:1050A4005022D2F81834D2F81814C9030ED4D2F806
:1050B4001434DB0713D5D2F81C3403F00303013B8B
:1050C400012B09D80223C2F8043308BD03F00303FB
:1050D400022B05D0012B02D00020FFF704FF01238F
:1050E4004FF05022C2F818350023C2F80431D2F828
:1050F40004310223C2F8043301239360E5E74FF03F
:1051040050230022C3F80021D3F800210122C3F860
:1051140004231A60D9E74FF050230022C3F8242156
:10512400D3F824214FF40072C3F8042301221A6235
:10513400CBE74FF050230022C3F82021D3F82021DD
:105144004FF48072C3F8042301229A61BDE7FFF78C
:10515400CABEF7B51646DDE90847019001A81D4609
:10516400FDF738FE019BB6F1000C18BF4FF0010C9F
:1051740000EB83000B1E18BF0123002D43EA4C03F0
:1051840014BF4FF00C0C4FF0000C002C43EA0C033E
:1051940014BF4FF4706C4FF0000C002F43EA0C0363
:1051A40014BF4FF4403C4FF0000CD0F8002243EA07
:1051B4000C0322EA030301B109780EB136787600B4
:1051C40019430DB12D78AD0031430CB1247824027C
:1051D40029430FB13F783F040C433C43C0F80042DD
:1051E40003B0F0BD1FB50DF10F03019300238DF83B
:1051F4000F101A4619460093FFF7ABFF05B05DF890
:1052040004FB704740B1C368587810F001001EBF1A
:105214001878B0FA80F040097047F8B505460E4694
:105224004FF02003EFF3118783F31288BFF36F8FDE
:10523400FEF7ECFE314604462846FFF742FE87F3AC
:105244001188BFF36F8F2046BDE8F840FCF740BBE0
:10525400FFF7BEBCFFF7B1BCD0E90332134313F030
:1052640003030CD143618168994201D8002070473F
:10527400416901331160C16842610A44F3E76FF088
:105284001500704710B5C0E9023200230161836143
:105294000446FFF7E1FF0028A8BFC4E9004410BD9D
:1052A400F8B504460D464FF02003EFF3118683F35F
:1052B4001288BFF36F8F476977B900F0B2F858B11D
:1052C4002A688767426100F08CF8314604F10800CF
:1052D400BDE8F840FEF760BD2B6862691A602B6870
:1052E4006361A369013BA36186F31188BFF36F8FE8
:1052F400F8BDEFF30580003818BF0120704708B5EA
:10530400FBF742FEBDE80840FFF7C4BD90F90E303C
:105314008B4201D0FEF7FABC002070470346002000
:10532400C3E90033C3E902007047D0E900321360D7
:105334005A600023C0E90033704708B5FFF7F5FF52
:10534400437B23F0020343730023836008BD0146BB
:1053540010B54FF02003EFF3118483F31288BFF3E9
:105364006F8F10F80B3C13F0280F0DD151F8103C3F
:1053740018380BB1FFF7E1FF11F80B3C23F01403CD
:1053840001F80B3CFEF7CCFB84F31188BFF36F8F5D
:1053940010BD38B504460D46FEF7F6FB637B43F0BB
:1053A40002036373E5B1A5602B689D4209D16B6864
:1053B400C4E900531C606C6012E06A689342F6D042
:1053C4001B68002BF3D094F90E2093F90E108A4237
:1053D400F3D09142F1DD5A68C4E9003214605C6094
:1053E40038BD10B54FF02003EFF3118483F3128816
:1053F400BFF36F8FFEF794FB84F31188BFF36F8FB5
:1054040010BD08B54FF02003EFF3118183F3128828
:10541400BFF36F8FFFF791FF81F31188BFF36F8F95
:1054240008BD38B54FF02003EFF3118583F31288DC
:10543400BFF36F8F0468A0420DD034B12046FFF74C
:105444007CFF04F1180000F01EF885F31188BFF307
:105454006F8F204638BD0024F7E7034620B9EFF3E9
:1054640005820AB9FBF7FEBF83F31188BFF36F8F80
:1054740070474FF02003EFF3118083F31288BFF3DA
:105484006F8FFFF7EABF10B54FF02002EFF31184DE
:1054940082F31288BFF36F8F03683BB1FEF768FE97
:1054A400002084F31188BFF36F8F10BD6FF01500D7
:1054B400F7E710B54FF02003EFF3118483F312885C
:1054C400BFF36F8FFEF72CFE84F31188BFF36F8F49
:1054D40010BD70B504460D464FF02003EFF311865E
:1054E40083F31288BFF36F8FFEF71AFE012807DDDE
:1054F400A04205DBA0422946A8BF2046FDF7F4F9E7
:1055040086F31188BFF36F8F70BD08B5FEF726FFD1
:1055140008BDFEF723BF08B1FBF7E6BC70470023C4
:10552400C0E9081200F11802C0E90622C0E90033FC
:085534000363436370477047F5
:08553C004CACFF7F01000000F0
:105544009D0E0000000000007D1C0000945500002A
:10555400813600000000000025200000AC5500004A
:1055640025200000C4550000CF4E000000000000BC
:1055740049230000DC550000FD1E0000000000006F
:105584009127000000000000D34E0000000000003E
:10559400C55A0000C4580000E4580000340100203B
:1055A400580800202E580000D05A0000005900006E
:1055B4002059000036010020FC0800202858000073
:1055C400DC5A000010590000205900003801002066
:1055D4000809002022580000E85A0000445900003D
:1055E400785900003A0100202C0000201C580000CB
:1055F40000000000354B000000000000354B0000A7
:1056040000000000354B000000000000354B000096
:1056140000000000354B00001D2D0000E54E000089
:1056240000000000354B000000000000354B000076
:10563400DC550000274E000000000000354B000040
:1056440000000000354B000000000000354B000056
:1056540000000000354B0000FD320000E54E000064
:1056640000000000354B000000000000354B000036
:1056740000000000354B000000000000354B000026
:1056840000000000354B000000000000354B000016
:1056940000000000354B000000000000112800004D
:1056A40000000000354B000000000000354B0000F6
:1056B40000000000354B000000000000354B0000E6
:1056C40000000000354B000000000000354B0000D6
:1056D40000000000354B000000000000354B0000C6
:1056E40000000000354B000000000000354B0000B6
:1056F40000000000354B000000000000354B0000A6
:1057040000000000354B000000000000354B000095
:1057140000000000354B000000000000354B000085
:1057240000000000354B000000000000354B000075
:1057340000000000354B000000000000354B000065
:1057440000000000354B000000000000354B000055
:1057540000000000354B000000000000354B000045
:1057640000000000354B000000000000354B000035
:1057740000000000354B000000000000354B000025
:1057840000000000354B000000000000354B000015
:1057940000000000354B000000000000354B000005
:1057A40000000000354B000000000000354B0000F5
:1057B40000000000354B000000000000354B0000E5
:1057C40000000000354B000000000000354B0000D5
:1057D40000000000354B000000000000354B0000C5
:1057E40000000000354B000000000000354B0000B5
:1057F40000000000354B000000000000354B0000A5
:1058040000000000354B000000000000354B000094
:0858140000000000354B00000C
:10581C0000800080FF7F00800080FF7F0080008080
:08582C00FF7F00800080FF7F78
:0C583400FFFFFFFFFFFFFFFFFFFFFFFF74
:105840000338FDD870470000C45500001D0001005A
:10585000C45500001C00010000000000214B0000A6
:105860002000002018000020100000200000000090
:1058700008000020C912000099110000ED1100007D
:10588000611200000000002000000000060001007E
:10589000020000009858000000000000B65A000006
:1058A00006000000E0FF0F0000000020BE5A0000CC
:1058B00021000000E0FF0620391C0000091C000048
:1058C00000000000451D0000DD1D0000094D000026
:1058D0001B4D0000034D0000154D0000FD4C000065
:1058E0000F4D0000A91D0000794C0000DD4C0000A8
:1058F00000000000ED4B0000000000000000000070
:10590000FFFF00000028845000000000010000009C
:10591000FFFFFFFF00258450000000000000000092
:10592000A9200000274D0000334D0000474D000026
:10593000514D00005B4D00004D1F00006F4D0000F9
:105940000000000000800050020000000000000085
:105950005459000000800050605900000100000010
:105960006859000004000000140000001300020049
:105970009601010095010300DF4D00003524000071
:10598000D14D0000CD210000C14D0000F5FFFFFF0B
:105990004455000044550000845500008C5500001B
:1059A0009455000094550000FF8FFFFFFF8FFFFF0D
:1059B000FE8FFFFFFE8FFFFFFD8FFFFFFC8FFFFFBE
:1059C000FC8FFFFFFB8FFFFF6D757465785F66725C
:1059D00065652063616C6C65642077697468204E2E
:1059E000554C4C20706172616D65746572000000E9
:1059F00043616E277420696E697469616C697A65A8
:105A0000206D757465782C20776173204E554C4C51
:105A10000D0A0000436F756C64206E6F74206C6F0C
:105A2000636B20706F7765722073617665206D758A
:105A300074657800286E696C29004661696C65643C
:105A400020746F207265626F6F743A207370696E94
:105A50006E696E6720656E646C6573736C792E2E4B
:105A60002E0A006D757465785F696E6974206361D4
:105A70006C6C65642077697468204E554C4C2070BE
:105A80006172616D6574657200436F756C64206E40
:105A90006F7420616C6C6F63617465206D757465E3
:105AA00078206265666F726520696E697469616CE1
:105AB000697A696E6700464C4153485F3000535223
:105AC000414D5F3000636C6F636B403530303000A8
